:040000005BEF08F0BA
:10100000003F065B4F666D7D077F6F007AEC08F04E
:10101000200E046E000E66EC08F01CD0010E0B24AE
:10102000F66E100E0C20F76E0800F5CF8AFF030E47
:10103000026EE80E016E4AEC08F0010E0B26000E5F
:101040000C220D220E220A0E0B180C100D100E1081
:10105000D8A4E4D7000E0B6E000E0C6E000E0D6EC1
:10106000000E0E6EDBD7026E8C8695960F013B97B5
:101070008C9495940F013B95000E8A6E000E936E32
:10108000000E0F01396F025070EC08F0000E8A6EEE
:101090008C9612000BD00B0E036E620EE82EFED75C
:1010A000032EFCD700D00106D8A002060150021082
:1010B000D8B41200F0D70E6A0D6A0C6A0B6A000EE3
:1010C000F86E100EF76E000106EF08F0056E000EC8
:1010D00033EC08F004C002F0055083EC08F0120075
:1010E000016E01C08AFF8C8400F000F000F000F077
:1010F0008C941200FC0ED316D3508F0B6009D36E64
:10110000D2949B8C1200036E8C86025070EC08F017
:0811100003C08AFF8C96120057
:020000040020DA
:08000000FFFFFFFFFFFFFFFF00
:020000040030CA
:0E000000FF281F3FFFBF85FF0FC00FE00F401E
:00000001FF
