:040000003FEF00F0DE
:100008000F82FACF01F0FBCF02F0E9CF03F0EACF7D
:1000180004F0E1CF05F0E2CF06F0D9CF07F0DACF50
:1000280008F0F3CF09F0F4CF0AF0F6CF0BF0F7CFD2
:100038000CF0F8CF0DF0F5CF0EF00EC0F5FF0DC0A7
:10004800F8FF0CC0F7FF0BC0F6FF0AC0F4FF09C0A9
:10005800F3FF08C0DAFF07C0D9FF06C0E2FF05C0FA
:10006800E1FF04C0EAFF03C0E9FF02C0FBFF01C0D3
:10007800FAFF0F92110049EF00F0AA0E8A6E000EE7
:100088000F01396F000E936EFFD70F900F9200018A
:0400980041EF00F044
:020000040020DA
:08000000FFFFFFFFFFFFFFFF00
:020000040030CA
:0E000000FF251F3FFFBF85FF0FC00FE00F4021
:00000001FF
