:0400000069EF08F0AC
:10100000003F065B4F666D7D077F6F0072EC08F056
:1010100036EC08F0000E016E200E5DEC08F0000EBC
:10102000056E000E046E0450010D010EF324F66EE1
:10103000100EF420F76E0800F5507AEC08F0010E5F
:10104000026EF40E016E4BEC08F00550D8A407D0E8
:10105000042A090E0418D8A4E6D7010E05D0040608
:101060000450D8A4E0D7000E056EDDD70F013B97E2
:101070008C8695960F013B958C949594000E0F01EC
:10108000396F000E8A6E000E936E000E016E000E18
:101090005DEC08F0120008D00B0E036E620EE82E15
:1010A000FED7032EFCD700D00106D8A002060128E7
:1010B000F3E10228D8B41200EFD7026E8C8602C08A
:1010C0008AFF8C8400F000F08C9401C08AFF8C961B
:1010D0001200056A046A000EF86E100EF76E000129
:1010E00006EF08F0FC0ED316D3508F0B6009D36EB9
:0C10F0009B8C1200016E01C08AFF1200F0
:020000040020DA
:08000000FFFFFFFFFFFFFFFF00
:020000040030CA
:0E000000FF281F3FFFBF85FF0FC00FE00F401E
:00000001FF
