:04000000ADEF7DF0F3
:10FB5A000001D9EF7DF0016E01C08AFF1200000E8C
:10FB6A000F01386F1200026E8C8602C08AFF8C84E5
:10FB7A0000F000F08C9401C08AFF8C9612000F01ED
:10FB8A003B978C8695960F013B958C949594000E25
:10FB9A000F01396F000E8A6E000E936E000E016E11
:10FBAA00000EB8EC7DF01200C4EC7DF0B4EC7DF0F0
:10FBBA00000E016E040EB8EC7DF080B004D0060E83
:10FBCA00B0EC7DF0FAD780B204D05B0EB0EC7DF0D9
:10FBDA00F4D780B604D04F0EB0EC7DF0EED780B8E3
:10FBEA0004D0660EB0EC7DF0E8D780BAE6D76D0E89
:06FBFA00B0EC7DF0E2D743
:020000040020DA
:08000000FFFFFFFFFFFFFFFF00
:020000040030CA
:0E000000FF251F3FFFBF85FF0FC00FE00F4021
:00000001FF
