:040000005DEF08F0B8
:0B1000000080C06030180C06030100E7
:10100C0065EC08F02AEC08F0000E016E400E51EC75
:10101C0008F017D00450010D010EF324F66E100EDB
:10102C00F420F76E0800F5506DEC08F0000E026E1F
:10103C00FA0E016E3FEC08F0042A090E0418D8A42D
:10104C00E9D7000E046EE6D70F013B978C86959678
:10105C000F013B958C949594000E0F01396F000E87
:10106C008A6E000E936E000E016E000E51EC08F0AD
:10107C00120008D00B0E036E620EE82EFED7032E64
:10108C00FCD700D00106D8A002060128F3E1022803
:10109C00D8B41200EFD7026E8C8602C08AFF8C8403
:1010AC0000F000F08C9401C08AFF8C961200046A48
:1010BC00000EF86E100EF76E000106EF08F0FC0E35
:1010CC00D316D3508F0B6009D36E9B8C1200016E1C
:0610DC0001C08AFF1200B2
:020000040020DA
:08000000FFFFFFFFFFFFFFFF00
:020000040030CA
:0E000000FF281F3FFFBF85FF0FC00FE00F401E
:00000001FF
