:040000004EEF00F0CF
:100008004C82FACF04F0FBCF05F0E9CF06F0EACF37
:1000180007F0E1CF08F0E2CF09F0D9CF0AF0DACF44
:100028000BF0F3CF0CF0F4CF0DF0F6CF0EF0F7CFC6
:100038000FF0F8CF10F0F5CF11F0F2BAF2A40CD00F
:100048007CEC0BF000016D2F05D0640E00016D6F84
:1000580000016E69EAEC09F011C0F5FF10C0F8FF65
:100068000FC0F7FF0EC0F6FF0DC0F4FF0CC0F3FF82
:100078000BC0DAFF0AC0D9FF09C0E2FF08C0E1FFE0
:1000880007C0EAFF06C0E9FF05C0FBFF04C0FAFF8E
:080098004C9211004DEF0BF03A
:1010000000010000000A00000064000000E8030086
:101010000010270000A086010040420F0080969833
:101020000000E1F50500CA9A3B3F065B4F666D7D07
:09103000077F6F25366C75000086
:10103A002C0E3B6E000E3C6E23D1250E3F18D8B401
:10104A0009D028C0D9FF29C0DAFF3FC0DFFF284AEC
:10105A00292A16D1000E3E6E000E3D6E000E346E29
:10106A002AC0F6FF2BC0F7FF0800F55030EC0BF052
:10107A00D8A038D0000E3E6E000E3D6E3DC012F074
:10108A003EC013F0000E156E0A0E146E1DEC0BF026
:10109A0012C03DF013C03EF0D00E306EFF0E316E1E
:1010AA002AC0F6FF2BC0F7FF0800F550326E336AEC
:1010BA00305032263150332232503D2633503E22B0
:1010CA002A4A2B2A2AC0F6FF2BC0F7FF0800F55040
:1010DA0030EC0BF0D8A006D0D1D7348803D0C00E9C
:1010EA00341214D02AC0F6FF2BC0F7FF2A4A2B2A43
:1010FA000800F5CF3FF03F50000AD8B4CDD06C0AB3
:10110A00D8B4EBD7190AD8B4EAD7BAD034A80ED0D3
:10111A003BC0D9FF3CC0DAFFDECF37F0DECF38F074
:10112A00DECF39F0DECF3AF0040E0FD03BC0D9FF44
:10113A003CC0DAFFDECF30F0DDCF31F030C037F01F
:10114A0031C038F0396A3A6A020E3B26000E3C2258
:10115A00010E3F6E0A0E3F18D8B418D03F50040D46
:10116A00010EF324F66E100EF420F76E0900F55006
:10117A00375C0900F55038580900F550395809000C
:10118A00F5503A58D8A002D03F2AE4D7800E3FBE85
:10119A007F0E306E3D503F5C3E50800A3058D8B0CA
:1011AA0007D03F503D5E000E3FBEFF0E3E5A04D0B0
:1011BA00000E3E6E000E3D6E3D503E10D8B40FD06C
:1011CA0028C0D9FF29C0DAFF200EDF6E284A292A53
:1011DA003D06D8A03E063D503E10D8A4F1D73F5058
:1011EA00356E366A35BE360643D035C030F036C065
:1011FA0031F0D89030363136D89030363136010E4B
:10120A003024F66E100E3120F76E0900F5CF16F075
:10121A000900F5CF17F00900F5CF18F00A00F5CF4D
:10122A0019F037C012F038C013F039C014F03AC0C0
:10123A0015F03EEC0AF012C01FF013C020F014C0E3
:10124A0021F015C022F00A0E236E000E246E000E45
:10125A00256E000E266EB4EC0AF01F50300F3F6E5A
:10126A0028C0D9FF29C0DAFF3FC0DFFF284A292A50
:10127A003506D8A036063528B8E13628D8A4B5D719
:10128A002AC0F6FF2BC0F7FF2A4A2B2A0800F5CFFF
:10129A003FF03F50D8A4D1D628C0D9FF29C0DAFFE1
:1012AA00000EDF6E1200450E286E000E296E330EF8
:1012BA002A6E100E2B6E40C02CF041C02DF042C099
:1012CA002EF043C02FF01DEC08F0000E4B6E050EF9
:1012DA004B6401D05BD0000168A134D04B50010DA2
:1012EA00450EF324D96E000EF420DA6E200EDE18B5
:1012FA00D8A43FD04B50010D610EF324D96E000ED5
:10130A00F420DA6E000E33D04B50010D450EF32453
:10131A00D96E000EF420DA6EDF50446E4450010D8F
:10132A00290EF324F66E100EF420F76E4B50010DC1
:10133A00610EF324D96E000EF420DA6E0800F5CFA0
:10134A00DFFF22D04B50010D450EF324D96E000E5B
:10135A00F420DA6E200EDE18D8A40BD04B50010D03
:10136A00610EF324D96E000EF420DA6E3F0EDF6EA2
:10137A000BD04B50010D450EF324D96E000EF4200C
:10138A00DA6E300EDF5EC0D74B2AA1D7000168A300
:10139A0002D00001618F000168A502D00001628FAE
:1013AA00000168A702D00001638F000168A902D07A
:1013BA000001648F000168AB02D00001658F000153
:1013CA0068AD12000001668F120031D0400E026E25
:1013DA00000167518FEC0BF041D0010E026E000143
:1013EA0061518FEC0BF03AD0020E026E000162518D
:1013FA008FEC0BF033D0040E026E000163518FECB8
:10140A000BF02CD0080E026E000164518FEC0BF029
:10141A0025D0100E026E000165518FEC0BF01ED024
:10142A00200E026E000166518FEC0BF017D00001FE
:10143A006051000AD8B4CAD7010AD8B4CED7030A71
:10144A00D8B4D2D7010AD8B4D6D7070AD8B4DAD7CB
:10145A00010AD8B4DED7030AD8B4E2D70001602B58
:10146A00070E00016019D8A41200000E0001606F77
:10147A001200000E1A6E000E1B6E000E1C6E000E7D
:10148A001D6E1650171018101910D8B42AD0010E54
:10149A001E6E06D0D89016361736183619361E2AFA
:1014AA0019AEF8D7D8901A361B361C361D36165088
:1014BA00125C175013581850145819501558D8A0C0
:1014CA0009D01650125E1750135A1850145A195050
:1014DA00155A1A80D89019321832173216321E2E1F
:1014EA00E1D71AC012F01BC013F01CC014F01DC0C3
:1014FA0015F0120086EC0BF0E7EC0AF03FEC0BF06B
:10150A00000E0001696F000E6A6F000E6B6F000E0D
:10151A006C6F000168810001688B69C040F06AC085
:10152A0041F06BC042F06CC043F058EC09F0F28E07
:10153A0000016EA1FDD700016E91010E000169271D
:10154A00000E6A236B236C2369C040F06AC041F025
:10155A006BC042F06CC043F058EC09F0E9D7235055
:10156A00241025102610D8B424D0010E276E06D0D8
:10157A00D8902336243625362636272A26AEF8D79B
:10158A0023501F5C24502058255021582650225899
:10159A00D8A008D023501F5E2450205A2550215A23
:1015AA002650225AD8902632253224322332272E28
:1015BA00E7D71FC01FF020C020F021C021F022C0B1
:1015CA0022F01200000E06EC0BF0000E0001606F14
:1015DA00000E0001616F000E0001626F000E000133
:1015EA00636F000E0001646F000E0001656F000E4C
:1015FA000001666F000E0001676F000E0001686F40
:10160A001200136E8C8695960F013B978C949594D5
:10161A000F013B95000E8A6E000E936E000E0F01AD
:10162A00396F13505AEC0BF0000E8A6E8C9612002A
:10163A0012501402F3CF16F0F4CF17F0125015021D
:10164A00F350172613501402F350172616C012F03F
:10165A0017C013F01200146E000E136E3A0E1460C7
:10166A0005D02F0E146402D0010E136E13C012F0AF
:10167A0012301200000ED56ED58672EC0BF0F28A8B
:10168A00640E00016D6F000E00016E6FD58E1200A0
:10169A0000EE60F00F0EEE6AE806FDE14C904C9207
:1016AA00000EF86E00017FEF0AF0126E12C08AFF78
:1016BA008C8400F000F000F000F08C94000E8A6E2A
:1016CA001200016E01C08AFF8C8400F000F000F065
:1016DA0000F08C94000E8A6E1200F294E00E136EE3
:1016EA00C00E126E13C0D7FF12C0D6FF1200F294BA
:1016FA00E00E026EC00E016E02C0D7FF01C0D6FF17
:10170A001200FC0ED316D3508F0B6009D36ED294FD
:10171A009B8C1200036E8C86025066EC0BF003C0A1
:06172A008AFF8C961200FC
:020000040020DA
:08000000FFFFFFFFFFFFFFFF00
:020000040030CA
:0E000000FF281F3FFFBF85FF0FC00FE00F401E
:00000001FF
