:0400000068EF08F0AD
:10100000003F065B4F666D7D077F6F0071EC08F057
:1010100035EC08F0000E016E200E5CEC08F0000EBE
:10102000046E20D00450010D010EF324F66E100E54
:10103000F420F76E0800F55079EC08F0030E026E0C
:10104000E80E016E4AEC08F00550D8A407D0042A37
:10105000090E0418D8A4E6D7010E05D004060450E2
:10106000D8A4E0D7000E056EDDD70F013B978C8624
:1010700095960F013B958C949594000E0F01396F56
:10108000000E8A6E000E936E000E016E000E5CEC78
:1010900008F0120008D00B0E036E620EE82EFED789
:1010A000032EFCD700D00106D8A002060128F3E1E8
:1010B0000228D8B41200EFD7026E8C8602C08AFFD5
:1010C0008C8400F000F08C9401C08AFF8C96120092
:1010D000056A046A000EF86E100EF76E000106EF46
:1010E00008F0FC0ED316D3508F0B6009D36E9B8C87
:0A10F0001200016E01C08AFF120019
:020000040020DA
:08000000FFFFFFFFFFFFFFFF00
:020000040030CA
:0E000000FF281F3FFFBF85FF0FC00FE00F401E
:00000001FF
