:0400000058EF08F0BD
:10100000003F065B4F666D00010E046E000E3BEC68
:1010100008F060EC08F015D080B00B2A80B20B2AE3
:1010200080B60B2A80B80B2A80BA0B2A0B50010D10
:10103000010EF324F66E100EF420F76E0800F5CFC3
:101040008AFF000E0B6EE8D7026E8C8695960F0114
:101050003B978C9495940F013B95000E8A6E000E81
:10106000936E000E0F01396F025045EC08F0000E30
:101070008A6E8C961200056E000E24EC08F004C0F7
:1010800002F005504FEC08F01200016E01C08AFF1B
:101090008C8400F000F000F000F08C941200036EDD
:1010A0008C86025045EC08F003C08AFF8C96120033
:1010B0000B6A000EF86E100EF76E000104EF08F0D8
:0810C000040E0F01386F12004D
:020000040020DA
:08000000FFFFFFFFFFFFFFFF00
:020000040030CA
:0E000000FF251F3FFFBF85FF0FC00FE00F4021
:00000001FF
