:04000000A9EF7DF0F7
:10FB52000001D5EF7DF0016E01C08AFF1200000E98
:10FB62000F01386F1200026E8C8602C08AFF8C84ED
:10FB720000F000F08C9401C08AFF8C9612000F01F5
:10FB82003B978C8695960F013B958C949594000E2D
:10FB92000F01396F000E8A6E000E936E000E016E19
:10FBA200000EB4EC7DF01200C0EC7DF0B0EC7DF004
:10FBB200000E016E040EB4EC7DF080B004D0060E8F
:10FBC200ACEC7DF0FAD780B204D05B0EACEC7DF0E9
:10FBD200F4D780B604D04F0EACEC7DF0EED780B8EF
:10FBE20004D0660EACEC7DF0E8D780BA04D06D0E7E
:0EFBF200ACEC7DF0E2D7400EACEC7DF0DED73F
:020000040020DA
:08000000FFFFFFFFFFFFFFFF00
:020000040030CA
:0E000000FF251F3FFFBF85FF0FC00FE00F4021
:00000001FF
