:04000000C1EF7DF0DF
:10FB82000001D8EF7DF0016E01C08AFF1200000E65
:10FB92000F01386F1200026E8C8602C08AFF8C84BD
:10FBA20000F000F08C9401C08AFF8C961200EBECFE
:10FBB2007DF0C8EC7DF0000E016E400ECCEC7DF0C5
:10FBC20080B004D00F0EC4EC7DF0FAD7F00EC4EC76
:10FBD2007DF0F6D70F013B978C8695960F013B95EA
:10FBE2008C949594000E0F01396F000E8A6E000EF0
:0EFBF200936E000E016E000ECCEC7DF0120042
:020000040020DA
:08000000FFFFFFFFFFFFFFFF00
:020000040030CA
:0E000000FF251F3FFFBF85FF0FC00FE00F4021
:00000001FF
