:04000000A7EF7DF0F9
:10FB4E000001E2EF7DF0040E0F01386F1200036E1C
:10FB5E008C860250B7EC7DF003C08AFF8C961200A3
:10FB6E00016E01C08AFF8C8400F000F000F000F0FE
:10FB7E008C941200056E000ECBEC7DF004C002F0EA
:10FB8E000550AEEC7DF01200026E8C8695960F013C
:10FB9E003B978C9495940F013B95000E8A6E000E48
:10FBAE00936E000E0F01396F0250B7EC7DF0000E10
:10FBBE008A6E8C961200010E046E000EC1EC7DF062
:10FBCE00AAEC7DF080B002D0060E11D080B202D029
:10FBDE005B0E0DD080B602D04F0E09D080B802D089
:10FBEE00660E05D080BA02D06D0E01D0400E8A6E20
:02FBFE00E9D745
:020000040020DA
:08000000FFFFFFFFFFFFFFFF00
:020000040030CA
:0E000000FF251F3FFFBF85FF0FC00FE00F4021
:00000001FF
