:0400000061EF08F0B4
:10100000000102040810204080C0E0F0F8FCFEFF60
:101010007F3F1F0F07030100400E046E000E44ECDB
:1010200008F018D00C50010D010EF324F66E100ECE
:10103000F420F76E0800F5CF8AFF210E0B6E760EB6
:10104000E82EFED70B2EFCD700D00C2A160E0C185B
:10105000D8A4E8D7000E0C6EE5D7026E8C86959664
:101060000F013B978C9495940F013B95000E8A6E6F
:10107000000E936E000E0F01396F02504EEC08F017
:10108000000E8A6E8C961200056E000E2DEC08F094
:1010900004C002F0055058EC08F01200016E01C0C7
:1010A0008AFF8C8400F000F000F000F08C941200B5
:1010B000036E8C8602504EEC08F003C08AFF8C96BB
:1010C00012000C6A000EF86E100EF76E00010CEFA5
:0210D00008F026
:020000040020DA
:08000000FFFFFFFFFFFFFFFF00
:020000040030CA
:0E000000FF251F3FFFBF85FF0FC00FE00F4021
:00000001FF
