:040000005EEF08F0B7
:10100000003F065B4F666D7D077F6F0066EC08F062
:101010002BEC08F06EEC08F0000E016E200E52EC86
:1010200008F016D00450010D010EF324F66E100ED8
:10103000F420F76E0800F55072EC08F0030E026E13
:10104000E80E016E40EC08F004060428D8A4EAD7A4
:10105000090E046EE7D70F013B978C8695960F011A
:101060003B958C949594000E0F01396F000E8A6E9B
:10107000000E936E000E016E000E52EC08F012008E
:1010800008D00B0E036E620EE82EFED7032EFCD79F
:1010900000D00106D8A002060128F3E10228D8B446
:1010A0001200EFD7026E8C8602C08AFF8C8400F09B
:1010B00000F08C9401C08AFF8C961200046A000E26
:1010C000F86E100EF76E000106EF08F0FC0ED31656
:1010D000D3508F0B6009D36E9B8C1200000E0F0152
:0C10E000386F1200016E01C08AFF120080
:020000040020DA
:08000000FFFFFFFFFFFFFFFF00
:020000040030CA
:0E000000FF281F3FFFBF85FF0FC00FE00F401E
:00000001FF
