:040000005DEF08F0B8
:10100000003F065B4F666D7D077F6F0065EC08F063
:101010002AEC08F0000E016E200E51EC08F0000ED4
:1010200017D00450010D010EF324F66E100EF420BB
:10103000F76E0800F5506DEC08F0030E026EE80E36
:10104000016E3FEC08F0042A0428D8A4EAD7090E60
:10105000046EE7D70F013B978C8695960F013B9561
:101060008C949594000E0F01396F000E8A6E000E5D
:10107000936E000E016E000E51EC08F0120008D0C5
:101080000B0E036E620EE82EFED7032EFCD700D0A7
:101090000106D8A002060128F3E10228D8B4120004
:1010A000EFD7026E8C8602C08AFF8C8400F000F0BD
:1010B0008C9401C08AFF8C961200046A000EF86EB0
:1010C000100EF76E000106EF08F0FC0ED316D35099
:1010D0008F0B6009D36E9B8C1200016E01C08AFFDA
:0210E0001200FC
:020000040020DA
:08000000FFFFFFFFFFFFFFFF00
:020000040030CA
:0E000000FF281F3FFFBF85FF0FC00FE00F401E
:00000001FF
