:0400000041EF00F0DC
:100008004C82FACF05F0FBCF06F0E9CF07F0EACF34
:1000180008F0E1CF09F0E2CF0AF0D9CF0BF0DACF40
:100028000CF0F3CF0DF0F4CF0EF0F6CF0FF0F7CFC2
:1000380010F0F8CF11F0F5CF12F0F9EC0AF012C079
:10004800F5FF11C0F8FF10C0F7FF0FC0F6FF0EC094
:10005800F4FF0DC0F3FF0CC0DAFF0BC0D9FF0AC0D4
:10006800E2FF09C0E1FF08C0EAFF07C0E9FF06C0D8
:0E007800FBFF05C0FAFF4C9211006AEF0BF07F
:1010000000010000000A00000064000000E8030086
:101010000010270000A086010040420F0080969833
:101020000000E1F50500CA9A3B3F065B4F666D7D07
:09103000077F6F25366C75000086
:10103A002D0E0001676F000E0001686F4BD1250E5F
:10104A0000016B19D8B409D029C0D9FF2AC0DAFF28
:10105A006BC0DFFF294A2A2A3DD1000E00016A6FC0
:10106A00000E696F000E0001606F2BC0F6FF2CC0E6
:10107A00F7FF0800F55079EC0BF0D8A03DD0000E30
:10108A0000016A6F000E696F69C013F06AC014F03C
:10109A00000E166E0A0E156E46EC0BF013C069F0C0
:1010AA0014C06AF0D00E316EFF0E326E2BC0F6FFFE
:1010BA002CC0F7FF0800F550336E346A31503326DE
:1010CA0032503422335000016927345000016A2318
:1010DA002B4A2C2A2BC0F6FF2CC0F7FF0800F5502C
:1010EA0079EC0BF0D8A008D0CFD70001608904D0E2
:1010FA00C00E0001601315D02BC0F6FF2CC0F7FFFD
:10110A002B4A2C2A0800F5CF6BF000016B51000A1C
:10111A00D8B4EDD06C0AD8B4E8D7190AD8B4E8D74D
:10112A00D9D0000160A90ED067C0D9FF68C0DAFF24
:10113A00DECF63F0DECF64F0DECF65F0DECF66F09F
:10114A00040E10D067C0D9FF68C0DAFFDECF31F0D5
:10115A00DDCF32F031C063F032C064F00001656B5C
:10116A00666B020E00016727000E6823010E00015C
:10117A006B6F0A0E00016B19D8B41ED000016B51B7
:10118A00040D010EF324F66E100EF420F76E09001A
:10119A00F5500001635D0900F5500001645909002A
:1011AA00F550000165590900F55000016659D8A0AB
:1011BA0003D000016B2BDDD7800E00016BBF7F0EC1
:1011CA00316E0001695100016B5D00016A51800AAC
:1011DA003158D8B00BD000016B510001695F000E85
:1011EA0000016BBFFF0E00016A5B05D0000E000113
:1011FA006A6F000E696F0001695100016A11D8B463
:10120A0012D029C0D9FF2AC0DAFF200EDF6E294A80
:10121A002A2A00016907D8A06A070001695100015A
:10122A006A11D8A4EED700016B510001616F626B9D
:10123A0061BF620744D061C031F062C032F0D89019
:10124A0031363236D89031363236010E3124F66EC6
:10125A00100E3220F76E0900F5CF17F00900F5CF0E
:10126A0018F00900F5CF19F00A00F5CF1AF063C09B
:10127A0013F064C014F065C015F066C016F056ECA1
:10128A000AF013C020F014C021F015C022F016C0D5
:10129A0023F00A0E246E000E256E000E266E000E36
:1012AA00276E97EC0AF02050300F00016B6F29C0AF
:1012BA00D9FF2AC0DAFF6BC0DFFF294A2A2A0001B8
:1012CA006107D8A0620700016129B5E1000162291E
:1012DA00D8A4B1D72BC0F6FF2CC0F7FF2B4A2C2A73
:1012EA000800F5CF6BF000016B51D8A4A8D629C02D
:1012FA00D9FF2AC0DAFF000EDF6E12006C0E296ECB
:10130A00000E2A6E330E2B6E100E2C6E35C02DF089
:10131A0036C02EF037C02FF038C030F01DEC08F080
:10132A00000E0001726F050E0001726501D062D0D5
:10133A0046A038D000017251010D6C0EF324D96E0B
:10134A00000EF420DA6E200EDE18D8A444D0000174
:10135A007251010D3F0EF324D96E000EF420DA6E9D
:10136A00000E37D000017251010D6C0EF324D96EB4
:10137A00000EF420DA6EDF50396E3950010D290E55
:10138A00F324F66E100EF420F76E00017251010D6F
:10139A003F0EF324D96E000EF420DA6E0800F5CF62
:1013AA00DFFF25D000017251010D6C0EF324D96EB6
:1013BA00000EF420DA6E200EDE18D8A40CD000013C
:1013CA007251010D3F0EF324D96E000EF420DA6E2D
:1013DA003F0EDF6E0CD000017251010D6C0EF3242A
:1013EA00D96E000EF420DA6E300EDF5EBBD7000134
:1013FA00722B99D746B23F8E46B4408E46B6418E7E
:10140A0046B8428E46BA438E46AC1200448E12004B
:10141A002AD0400E146E4550BAEC0BF03AD0010EA9
:10142A00146E3F50BAEC0BF034D0020E146E4050DA
:10143A00BAEC0BF02ED0040E146E4150BAEC0BF03D
:10144A0028D0080E146E4250BAEC0BF022D0100EBF
:10145A00146E4350BAEC0BF01CD0200E146E44509C
:10146A00BAEC0BF016D03E50000AD8B4D2D7010A13
:10147A00D8B4D5D7030AD8B4D8D7010AD8B4DBD799
:10148A00070AD8B4DED7010AD8B4E1D7030AD8B418
:10149A00E4D73E2A070E3E18D8A41200000E3E6E6C
:1014AA001200000E1B6E000E1C6E000E1D6E000E4A
:1014BA001E6E1750181019101A10D8B42AD0010E1F
:1014CA001F6E06D0D8901736183619361A361F2AC4
:1014DA001AAEF8D7D8901B361C361D361E36175052
:1014EA00135C18501458195015581A501658D8A089
:1014FA0009D01750135E1850145A1950155A1A5019
:10150A00165A1B80D8901A321932183217321F2EE7
:10151A00E1D71BC013F01CC014F01DC015F01EC08B
:10152A0016F012002450251026102710D8B424D003
:10153A00010E286E06D0D890243625362636273650
:10154A00282A27AEF8D72450205C25502158265047
:10155A00225827502358D8A008D02450205E25505E
:10156A00215A2650225A2750235AD89027322632F7
:10157A0025322432282EE7D720C020F021C021F0BE
:10158A0022C022F023C023F01200000E3A6E000E91
:10159A003B6E000E3C6E000E3D6E000E166E200E67
:1015AA00B0EC0BF0CBEC0BF0C3EC0BF059EC0BF0FE
:1015BA00CFEC0BF030EC0BF03AC035F03BC036F014
:1015CA003CC037F03DC038F083EC09F00DEC0AF06E
:1015DA00000173A1F1D700017391010E3A26000EA2
:1015EA003B223C223D22E8D7F2AA1200F2A41200C2
:1015FA0096EC0BF0472E02D00A0E476E482E02D008
:10160A00640E486E492E02D0FA0E496E4A06D8A0D8
:10161A004B064A504B10D8A41200030E4B6EE80E2C
:10162A004A6E000173691200146E8C8695960F013A
:10163A003B978C9495940F013B95000E8A6E000E91
:10164A00936E000E0F01396F1450A4EC0BF0000ECC
:10165A008A6E8C961200000E19EC0BF0000E3E6E8C
:10166A00000E3F6E000E406E000E416E000E426E7E
:10167A00000E436E000E446E000E456E000E466E5E
:10168A00120013501502F3CF17F0F4CF18F01350CD
:10169A001602F350182614501502F350182617C0D4
:1016AA0013F018C014F012000A0E476E640E486E4A
:1016BA00FA0E496E030E4B6EE80E4A6E000ED56E98
:1016CA0088EC0BF0F28AD58E12000001736B00EEE3
:1016DA003EF00E0EEE6AE806FDE14C904C92000ECA
:1016EA00F86E0001CAEF0AF0156E000E146E3A0E7B
:1016FA00156005D02F0E156402D0010E146E14C0A9
:10170A0013F013301200F294600E136EF00E146E82
:10171A00000E156E000E166E14C0D7FF13C0D6FF4A
:10172A001200F294600E016EF00E026E000E036E4D
:10173A00000E046E02C0D7FF01C0D6FF1200136E5E
:10174A0013C08AFF8C8400F000F000F000F08C9443
:10175A00000E8A6E1200176E000E19EC0BF016C0FE
:10176A0014F01750BAEC0BF01200156E8C86145058
:10177A00A4EC0BF015C08AFF8C961200FC0ED3164F
:10178A00D3508F0B6009D36E9B8C1200040E0F018D
:0A179A00386F1200F28EF28C12007C
:020000040020DA
:08000000FFFFFFFFFFFFFFFF00
:020000040030CA
:0E000000FF28073CFFBF81FF0FC00FE00F403D
:00000001FF
