:0400000049EF08F0CC
:10100000003F065B4F666D7D077F6F0028EC08F0A0
:10101000000E016E200E3DEC08F051EC08F0000EC1
:10102000036E80A0032A80A2032A80A6032A80A838
:10103000032A80AA032A0350010D010EF324F66E41
:10104000100EF420F76E0800F55055EC08F0E7D7C5
:101050000F013B978C8695960F013B958C94959448
:10106000000E0F01396F000E8A6E000E936E000E97
:10107000016E000E3DEC08F01200026E8C8602C07C
:101080008AFF8C8400F000F08C9401C08AFF8C965B
:101090001200036A000EF86E100EF76E000106EFE4
:1010A00008F0000E0F01386F1200016E01C08AFFB8
:0210B00012002C
:020000040020DA
:08000000FFFFFFFFFFFFFFFF00
:020000040030CA
:0E000000FF251F3FFFBF85FF0FC00FE00F4021
:00000001FF
