:0400000047EF00F0D6
:100008001B82FACF03F0FBCF04F0E9CF05F0EACF6B
:1000180006F0E1CF07F0E2CF08F0D9CF09F0DACF48
:100028000AF0F3CF0BF0F4CF0CF0F6CF0DF0F7CFCA
:100038000EF0F8CF0FF0F5CF10F0F2BAF2A405D019
:10004800F29402EC01F049EC00F010C0F5FF0FC08B
:10005800F8FF0EC0F7FF0DC0F6FF0CC0F4FF0BC091
:10006800F3FF0AC0DAFF09C0D9FF08C0E2FF07C0E2
:10007800E1FF06C0EAFF05C0E9FF04C0FBFF03C0BB
:10008800FAFF1B921100CBEF00F0000E016E000E7C
:10009800E4EC00F032D014C001F0400EE4EC00F0C3
:1000A800132A120015C001F0010EE4EC00F0132A27
:1000B800120016C001F0020EE4EC00F0132A120040
:1000C80017C001F0040EE4EC00F0132A120018C067
:1000D80001F0080EE4EC00F0132A120019C001F038
:1000E800100EE4EC00F0132A12001AC001F0200EE2
:1000F800E4EC00F0000E136E12001350000AD8B49E
:10010800CAD7010AD8B4CED7030AD8B4D2D7010ABD
:10011800D8B4D6D7070AD8B4DAD7010AD8B4DED704
:10012800030AD8A41200E1D70BEC01F0B6EC00F0FA
:10013800F0EC00F0C30E116E400ED8EC00F0000E8B
:10014800136EF28CF28EC30E146E060E156E5B0ED5
:10015800166E4F0E176E660E186E6D0E196E7D0EAA
:100168001A6EF1D70F013B978C8695960F013B9538
:100178008C949594000E0F01396F000E8A6E000E54
:10018800936E000E116E000ED8EC00F0120000EE17
:1001980013F0080EEE6AE806FDE11B901B92000EB4
:1001A800F86E000198EF00F0126E8C8612C08AFF7C
:1001B8008C8400F000F08C9411C08AFF8C96120099
:1001C800026E8C8602C08AFF8C8400F000F08C944A
:1001D80001C08AFF8C961200D59CD59AD586F9EC79
:1001E80000F0F294F28AD58E1200E00E126EC00E64
:1001F800116E12C0D7FF11C0D6FF1200E00E026EBA
:10020800C00E016E02C0D7FF01C0D6FF1200FC0E5F
:0E021800D316D3508F0B6009D36E9B8C12004F
:020000040020DA
:08000000FFFFFFFFFFFFFFFF00
:020000040030CA
:0E000000FF281F3FFFBF85FF0FC00FE00F401E
:00000001FF
