:0400000047EF00F0D6
:100008001B82FACF03F0FBCF04F0E9CF05F0EACF6B
:1000180006F0E1CF07F0E2CF08F0D9CF09F0DACF48
:100028000AF0F3CF0BF0F4CF0CF0F6CF0DF0F7CFCA
:100038000EF0F8CF0FF0F5CF10F0F2BAF2A405D019
:10004800F2940FEC01F049EC00F010C0F5FF0FC07E
:10005800F8FF0EC0F7FF0DC0F6FF0CC0F4FF0BC091
:10006800F3FF0AC0DAFF09C0D9FF08C0E2FF07C0E2
:10007800E1FF06C0EAFF05C0E9FF04C0FBFF03C0BB
:10008800FAFF1B921100D8EF00F0000E016E000E6F
:10009800F1EC00F02AD014C001F0400EF1EC00F0B1
:1000A8003AD015C001F0010EF1EC00F034D016C0C2
:1000B80001F0020EF1EC00F02ED017C001F0040E92
:1000C800F1EC00F028D018C001F0080EF1EC00F0B7
:1000D80022D019C001F0100EF1EC00F01CD01AC0AB
:1000E80001F0200EF1EC00F016D01350000AD8B43D
:1000F800D2D7010AD8B4D5D7030AD8B4D8D7010AB9
:10010800D8B4DBD7070AD8B4DED7010AD8B4E1D708
:10011800030AD8B4E4D7132A070E1318D8A4120078
:10012800000E136E120018EC01F0AFEC00F0FDECBD
:1001380000F0C4EC00F0C30E146E040E156E780EB9
:10014800166E7C0E176E400E186E060E196E7D0E1A
:100158001A6EF28EFFD70F013B978C8695960F018A
:100168003B958C949594000E0F01396F000E8A6EA2
:10017800000E936E000E116E000EE5EC00F01200FA
:10018800000E136E000E116E060E116401D01200DF
:100198001150010D140EF324D96E000EF420DA6EFE
:1001A800000EDF6E112AF0D700EE13F0080EEE6A8B
:1001B800E806FDE11B901B92000EF86E000197EF18
:1001C80000F0126E8C8612C08AFF8C8400F000F05A
:1001D8008C9411C08AFF8C961200026E8C8602C025
:1001E8008AFF8C8400F000F08C9401C08AFF8C9602
:1001F8001200D59ED59CD59AD58606EC01F0F28AD8
:10020800D58E1200A80E126E800E116E12C0D7FF86
:1002180011C0D6FF1200A80E026E800E016E02C039
:10022800D7FF01C0D6FF1200FC0ED316D3508F0B98
:080238006009D36E9B8C1200DB
:020000040020DA
:08000000FFFFFFFFFFFFFFFF00
:020000040030CA
:0E000000FF281F3FFFBF85FF0FC00FE00F401E
:00000001FF
